:020000040040BA
:10000000F80A4020BD044000B9044000B904400093
:10001000B9044000B9044000B904400000000000E9
:10002000000000000000000000000000B9044000D3
:10003000B904400000000000B9044000B9044000C9
:10004000B9044000B9044000B9044000B9044000BC
:10005000B9044000B9044000B9044000B9044000AC
:10006000B904400000000000B9044000B904400099
:1000700000000000B9044000B9044000B904400089
:10008000B904400000000000B9044000B904400079
:10009000B9044000B9044000B9044000B90440006C
:1000A000B9044000B9044000B9044000B90440005C
:1000B000B9044000B9044000B9044000B90440004C
:1000C000B9044000B904400041074000E912400073
:1000D000B9044000B9044000B9044000B90440002C
:1000E000B9044000B904400000000000B904400019
:1000F000B9044000B9044000B9044000B90440000C
:10010000B9044000B9044000B9044000B9044000FB
:10011000B9044000000000000000000000000000E2
:10012000B9044000B9044000B9044000B9044000DB
:10013000B9044000B904400000000000B9044000C8
:10014000B9044000B9044000B9044000B9044000BB
:10015000B9044000B904400000000000B9044000A8
:10016000B9044000B904400010B5054C227832B9FA
:10017000044B13B10448AFF300800123237010BD7A
:100180004001402000000000C821400008B5034B9A
:100190001BB103490348AFF3008008BD0000000015
:1001A00044014020C8214000034B10B59847034B41
:1001B000BDE81040184700BF99204000E112400000
:1001C0002DE9F34115460A7806460C46C2F3411361
:1001D000012B55D12D4B898818789846884202D03A
:1001E0005B788B424CD11306E7880FD5012D33D0B5
:1001F0006378212B12D1072F45D100233A46244999
:100200003046244CA04702B0BDE8F081224B98470D
:1002100063780146202B04D0222B24D06FF00C00F1
:10022000F1E7072F2FD115B92B463A46E8E70068CA
:1002300000908B798A888DF80630D8F81030ADF8A8
:1002400004205BB9124B0098BDF804109DF80620FD
:10025000C8F8060099809A710020D4E7684698474C
:100260000028EFD1F8E700230A4D1A461946184630
:10027000A847D8F81430002BEED060889847EBE7F9
:100280006FF00900BFE74FF0FF30BCE75C01402092
:1002900062014020111B40004920400001292DE946
:1002A000F84F15464FD0022976D0002977D18768BC
:1002B000DFF8148110687E1E28B96FF00900BDE8D0
:1002C000F88F4E46F8E74379827803F0F703022B64
:1002D000F3D173789A4265D0FF2B66D172700522F4
:1002E000696806F10109C047DFF8E0A0044664B977
:1002F0002B680422696818781844C047BE42E0D1D0
:100300002D4B012220465A71D9E76179227994F860
:1003100002B002EB0122294BE178584692B298478D
:10032000002845D11BF0800F584614BF89F802B051
:1003300087F804B0D0472C60207869682044204BAF
:1003400098470446D3E784682AB113685B7903F0C1
:10035000F703022BB1D12378FF2B07D0FF25A0781C
:10036000A842257002D0174B9847A5706378FF2BE1
:1003700007D0FF25E078A842657002D0114B98475E
:10038000E5702079FF2803D00E4B9847FF23237197
:100390000020094B587192E76FF01A008FE76FF059
:1003A0000C008CE76FF0110089E76FF01B0086E707
:1003B0006FF0130083E700BF5C0140202D17400061
:1003C0000314400091174000E9134000BD1740009E
:1003D00008B50A4B984701280CD80948094BC0E9D1
:1003E00007301830084B984701200849084B9847B8
:1003F000002008BD6FF01000FBE700BF5520400053
:100400005C0140209D024000F51F4000000040209C
:100410006D1F400010B4084C0A4663793BB1014699
:100420002079064C0023A4465DF8044B60476FF02A
:1004300010005DF8044B70475C014020111B400028
:1004400010B4084C0A4663793BB10146E078064C8B
:100450000123A4465DF8044B60476FF010005DF87F
:10046000044B70475C014020111B40000A4608B550
:10047000032814D8DFE800F002090D10094B02210F
:100480001879094B9847002008BD064B0221D878FF
:10049000F7E7044B1961F6E7024B5961F3E76FF098
:1004A0000C00F1E75C01402049194000014B5879EC
:1004B000704700BF5C014020FEE700000F4A08B50E
:1004C0000F4B9A4202D00F498B420ED30E4B0021A4
:1004D0000E4A93420ED30E4B0E4A23F07F039360D5
:1004E0000D4B98470D4B9847FEE752F8040B43F825
:1004F000040BE9E743F8041BEBE700BFC821400009
:10050000000040204001402040014020F4044020F1
:100510000000400000ED00E0D920400095194000A7
:100520007047002070470000C27C10B402F007043E
:10053000817C012C01F00F030CD09B0004225DF89C
:10054000044B03F1804303F56033C3F86021C3F823
:100550002022704712F0400F0CD06FF38612C27445
:100560009A0002F1804202F56032C2F89041022402
:10057000C2F86041C27C9B005DF8044B6FF3C3027C
:1005800003F18043C27403F5603318220846C3F8B0
:100590006021C3F82022014B9B681847800140204E
:1005A00010B4847CFF2C0CD0C37C5A0609D56FF3A1
:1005B00086138268C3742046034B5DF8044B1B69A5
:1005C00018475DF8044B704780014020134B03210E
:1005D0001A6822F0800270B51A60FF251A68104C64
:1005E00022F07F020F4E04F114001A601A6842F0E4
:1005F00080021A60B047032104F12800E584B04767
:10060000032104F13C006587B047032104F1500049
:10061000A4F84E50B047A4F8625070BD008003406B
:1006200080014020A10540002DE9F041C57C6B060A
:1006300035D5847C25F06F0CD0E9013104F00F042E
:10064000994239D05B1AB3F5803F92BF1A04002259
:100650004FF48033BCF1800F23D142F008020568CB
:1006600004F1FF3E244E05EB01085FFA8EF505F11B
:10067000310706EB051506EB0717C7F80480D5F818
:100680001C73FF0617D4194442F02102C5F8182341
:10069000C0E902134FF0007303FA0EF3B361BDE833
:1006A000F08105F00705022D02D1058A9D42D6D3BF
:1006B00042F01402D3E74160BCF1900F16D1A300C1
:1006C000012203F1804303F56033C3F86021D3F8BE
:1006D0003011C90301D5C3F89021C3F8F0214FF4BC
:1006E000805303FA04F4044B9C61D8E70021034BC8
:1006F000BDE8F041184700BF00800340A10540005D
:10070000837CFF2B10B40C46114611D0C27C5206DC
:100710000ED503F00F03084A3CB16433012442F8BC
:100720002340064B5DF8044B184758330224F6E784
:100730005DF8044B704700BF00800340A1054000F6
:10074000B74B59681A690A402DE9F04FC2F30931D5
:1007500085B00191510E0291019951EA52623CD14A
:100760005A68196992B20A40540707D504229A6060
:10077000AC4B1B6805B0BDE8F04F184712F0020102
:1007800001D00222F3E712F070050BD07022022094
:100790009A605A6101229A61A24B5B6805B0BDE87C
:1007A000F04F184712F008010CD0082201249A607B
:1007B00070225A619C619C4B98479A4B294620466F
:1007C0005B68EBE7D00708D5012204209A605A61E4
:1007D00070229A61934B5B68E0E7944C0027DFF846
:1007E0004092DFF858A2A07CFF285FD0019B002B2D
:1007F00000F0268100F00F060121019A01FA06F3AC
:10080000134253D0B50005F1804505F56035D5F8A4
:100810003031D5F8C021DBB2134047D05A0606D597
:100820004023C5F820322046814B98473EE094F89B
:10083000138018F0400F04D1590737D52046D04710
:1008400034E018F0800F7ED0D90708F0070B76D57A
:1008500040F2FF33B4F810C09C45D4E9012116BF23
:100860000CF1FF3363461BB291424DD318F0100FC9
:1008700023D06C4A14230021BBF1010F03FB072393
:10088000E16093F8272061F3041283F827204FF0EA
:100890000103C5F860314FF00803C5F86031C5F8B1
:1008A000F03103D04FF48043C5F8203201371434BF
:1008B000042F98D105B0BDE8F08F4FF0010EE2682B
:1008C000F345C5F820E205D04FF4805505FA06F649
:1008D000C9F81460134061609BB29C4512D1514A23
:1008E000142303FB072303F1200593F827306FF34C
:1008F0008613EB71D36898470028D7D1EB7943F082
:100900004003EB7100218EE7A2EB0108F00323689E
:100910001FFA88F800F120401944464BE04500F5E5
:10092000801028BFE04642469847A2680123C4F8D9
:100930000C8042449B45A260C5F86031B1E7BBF131
:10094000010FB3D178E79A060ED52023354A204609
:10095000C5F86031142303FB0723042293F8271002
:10096000354BC9099847A1E7980708F0070853D500
:10097000D5F830110222C1F30A51D4E90130C5F88B
:10098000602100293BD01B1A8AB29BB299424FEAE0
:10099000C63188BF1A4601F12041236898BF4FF045
:1009A000000B01F5801103921844224B88BF4FF0D1
:1009B000010B9847A368039A1344C4E902324FF429
:1009C0008043C5F82032238A93421CD9154A142348
:1009D00003FB072393F827206FF3041283F82720E3
:1009E0000223B8F1010FC5F8203205D04FF4805032
:1009F00000FA06F6C9F81460A368636082E74FF056
:100A0000000B5A46DFE7D4E901329A42E8D2BBF143
:100A1000000F3FF44BAFE3E7B8F1010F91E700BFE0
:100A20000080034080014020CD054000940140201B
:100A3000A105400021214000010740002905400098
:100A4000029B002B3FF432AF7B1EDBB2052B3FF63F
:100A50002DAF00F00F000123029A013883401342AA
:100A60003FF424AFC3B209EB0313D3F81C23D2071E
:100A70003FF51CAF4FF0007202FA00F0C9F8140005
:100A80002046D3F81C23120C1EBFA3689B1AC4E98E
:100A90000133014B984709E72906400038B50E4D50
:100AA000D5F80038C3F3C0341B0412D40B4B0C4AE6
:100AB0000C499A60C3E90022C3E903120A4B984724
:100AC0004FF000732046C5F800384FF480732B6058
:100AD00038BD6FF01000FBE700800340800140202C
:100AE0002105400023054000CD0540000D4BD3F803
:100AF000002811040BD4D3F8002822F48042C3F854
:100B00000028D3F8002842F40042C3F80028D3F8A4
:100B100004285204FBD51D2200209A610422024BB6
:100B20005A6070470080034000E100E0024A136809
:100B300023F48073136070470080034082B040F25A
:100B40000122084BD3F80438ADF804200022C3F387
:100B500001338DF8062002AA134413F8040C02B0E6
:100B6000704700BF00800340064B00F07F001A680A
:100B700022F07F02104318601A6842F080021A6067
:100B8000704700BF008003402DE9F047144640F253
:100B9000FF3A064600F00F0554454FEAD017894644
:100BA00040F2D5428CBF002001203D49DFF8F8809B
:100BB000C047544559D0631E23420CBF012000207A
:100BC00040F2D6423649C047072C354940F2D74259
:100BD00094BF00200120C04716F00C0F09F003015C
:100BE00057D13048142303FB050393F82630FF2B1D
:100BF00052D1AA0002F1804202F56032D2F80031EF
:100C000023F4CB5E4B1E012B2EF01C0E8CBF002359
:100C10000123B4F5007F4FEA830328D8B4F5807F21
:100C200028D8802C29D8402C2AD8202C2BD8102C1E
:100C30002CD8082C94BF4FF0000C4FF0010C43EA65
:100C40000E0343EAC123013143EA072343EA0C13AD
:100C5000C2F80031142303FB05050020AC8485F89D
:100C6000271085F82660BDE8F0870120A8E74FF03F
:100C7000070CE4E74FF0060CE1E74FF0050CDEE768
:100C80004FF0040CDBE74FF0030CD8E74FF0020CF9
:100C9000D5E76FF01100E6E76FF01300E3E700BF60
:100CA0004C214000800140201912400010F00C0F30
:100CB00070B519D100F00F040C4E142303FB04652A
:100CC00095F82620FF2A0FD004FB0333C109032225
:100CD000F018074B984707490122CB69A24023EA45
:100CE0000203CB61FF23EB8470BD00BF8001402075
:100CF000010740000080034010F00C0F00F00F03CC
:100D00002DE9F04140F0AE805849142202FB031255
:100D100092F82620FF2A00F0A580002B3CD001226B
:100D20000324534F02FA03F59446ADB2E2B29A425D
:100D300075D81C464FF0140C4D4F4FF0010EE2B227
:100D4000032A38D845FA04F2D20723D50CFB041243
:100D500092F827606FF3861682F82760A20002F1EE
:100D6000804202F56032D2F8006146F00206C2F815
:100D700000610EFA04F6D7F81C8046EA0806FE6108
:100D8000D2F83061760346D5D2F8006126F40076B9
:100D9000C2F800610134D2E7354AD2F8004144F08C
:100DA0000204C2F80041D46944F00104D461D2F8CD
:100DB000302154032FD5142505FB031292F8274048
:100DC00004F00704012C42D19A0003FB05550220D0
:100DD00002F18042294402F56032C2F86001C2F893
:100DE00090418B7C412103F00F021346834003F1B5
:100DF000804303F56033C3F860110621C3F8600136
:100E0000C3F8F011C3F820424FF480539340184ABE
:100E10009361002001E06FF01400BDE8F081FA69F1
:100E20000CFA04F6164210D0FA69354322EA06029B
:100E3000ADB2FA61A20002F1804202F56032D2F84E
:100E4000006126F00206C2F80061013C6EE710F076
:100E5000800F074A19BF643301215833022142F839
:100E60002310D6E76FF01100D7E700BF80014020C4
:100E70000080034010F00C0F70B500F00F0478D123
:100E80003F4D1422012902FB045225D192F826304D
:100E900013F00C0F70D192F8270010F0080001D069
:100EA000002018E092F8271041F0080182F827107E
:100EB00003F00F0140228B0003F1804303F5603300
:100EC000C3F8F0214FF480528A402E498A614FF4D2
:100ED0000022C3F8F02170BD002945D192F82710F7
:100EE0000E07DDD592F826304FF4002203F00F06EE
:100EF000B30003F1804303F56033C3F8202240229E
:100F0000C3F82022D3F83001400610D5C3F8602181
:100F10004FF480301B4AB040D6690643D661D6698B
:100F200026EA0000D0614FF48022C3F8F02101F0DE
:100F3000070101290ED1D3F8300110F04000AFD1E4
:100F4000142202FB045292F8273060F3C30382F8A4
:100F50002730C0E7142202FB045292F827306FF3C7
:100F6000C30382F827309BE792F82700C0F3C00044
:100F7000B1E76FF01100AEE76FF00900ABE700BF1B
:100F8000800140200080034000F00F0210F00C0FA1
:100F90004FEA820303F1804303F5603330B50C461A
:100FA000D3F8305119D1C1B1D3F8001111F4C05F99
:100FB00016D1D3F83011C1F3800049070CD5D20304
:100FC00002F1204202F5801203CA04222060C5F318
:100FD0000A506160C3F8602130BD6FF01100FBE77B
:100FE0006FF01200F8E700002DE9F04F067A1424A4
:100FF000484F85B006F00F05824604FB057204FBDE
:101000000574B2F824B040F2FF3294F8278093457B
:101010001CBF0BF1FF3B1FFA8BFB16F00C0F73D1BB
:1010200018F0080F73D1436803A83B4A0093904718
:1010300094F82790394A19F0400905D003A8904741
:10104000012005B0BDE8F08F94F8270004F12001DD
:1010500076B240F04000019184F8270003A8904741
:10106000DAF800200199F00F6261DAF80420C4F880
:101070002090C4E90629CA7960F3C712CA719AF8A8
:1010800009302BB1009B1BEA030F0CBF0123002387
:10109000142000FB057292F8271063F304116B1EF5
:1010A000052B82F827102BB211D89B0005FB0000FE
:1010B00003F18043384403F56033D3F8002142F450
:1010C0000072C3F80021164B98470020B9E708F0DA
:1010D0000708B8F1010F05D04FF48050114A00FA0B
:1010E00005F595619B00002E03F1804303F5603305
:1010F000D3F8002122F40072C3F80021B4BF01220A
:101100000222C3F8F021E0E76FF0110099E7022016
:1011100097E700BF80014020BD204000CB20400069
:101120002906400000800340064B002908BF1946ED
:10113000012802D1044B5960704708B9024B19606D
:10114000704700BF2105400080014020084B002966
:1011500008BF194610B9074B99607047012802D1A2
:10116000044BD9607047022804BF024B19617047D5
:10117000210540008001402007B50E4B01A898478B
:101180000D4AD2F8883043F47003C2F88830BFF3B8
:101190004F8FBFF36F8F094B01A89847084A136818
:1011A00023F4706343F4A0631360064B984703B0C5
:1011B0005DF804FBBD20400000ED00E0CB204000C6
:1011C000000C0E404D134000006800B97047884283
:1011D000FAD101207047000070B50C4B06460C4652
:1011E0000568984780F00100094B4F220949C0B2B9
:1011F0009847336813B93460236070BD2B462D685F
:10120000002DFBD11C602560F7E700BFC91140002D
:10121000191240006521400000B900BE704700006F
:1012200008B54FF40071024B02489847002008BDF2
:1012300015044000E401402008B51146024B034864
:101240009847002008BD00BF41044000E401402051
:10125000C30713B5ADF804000BD507490020074CB0
:10126000A04707490120A0474FF400710548064BED
:101270009847002002B010BD391240006D044000B4
:1012800021124000E40140201504400010B5064B37
:1012900006489847064B9847064B07489847074B20
:1012A000BDE81040184700BF991F4000E4034020EC
:1012B000D1034000052040000800402041204000AC
:1012C000044C08B5A0470028FCD003490320034B79
:1012D0009847FEE7AD044000511240006D04400005
:1012E000004B18478D12400038B5174B9C6A236895
:1012F0001D6DE80702D5A36820469847AA0502D5C8
:10130000636820469847AB0103D5E3680321204674
:101310009847E80103D5E3680021204698472A0250
:1013200009D522682046E368526C12F0200F14BFE2
:101330000221012198472B0703D5E36804212046A9
:10134000984723681D6538BD24044020234B244A58
:10135000196A21F002010A431A629A6ED207FCD57B
:101360001A6A42F09B7242F480321A629A6A22F040
:10137000FF6222F4E0229A621A4A9A629A6E9007F9
:10138000FCD54FF47102DA619A6E5106FCD51A6BE6
:1013900042F400521A639A6E1207FCD51A6B22F0BF
:1013A00070021A639A6E1007FCD51A6B22F4407211
:1013B00042F480721A639A6E1107FCD51A6B22F000
:1013C000030242F002021A639A6E1207FCD540F241
:1013D00001429A6320221A60704700BF00060E4047
:1013E000013E3700013F182010B5884201D300208C
:1013F00010BD0378012BFAD944789442F8D01844F0
:10140000F3E7884201D3002070470378012BFAD913
:101410004278042AF7D0052AF6D01844F1E70000F4
:1014200038B515460C4B02220C46984778B938BDA2
:101430000378012B0DD94378022B0AD14379AB42B3
:10144000F5D0C278837803EB022310FA83F0A04230
:10145000EED30020EBE700BFE913400038B5154696
:101460000C4B07220C46984778B938BD0378012BFE
:101470000DD94378072B0AD14379AB42F5D0C27816
:10148000837803EB022310FA83F0A042EED300200E
:10149000EBE700BFE913400070B515460024084E85
:1014A000884201D3002070BD0322B0470028FAD043
:1014B0000378012BF6D9AC42F5D018440134EFE79C
:1014C000E913400070B50A4A002300F00F05547874
:1014D00059B2844209D016780EB9AC4205D0013316
:1014E0002032042BF3D14FF0FF31084670BD00BF0E
:1014F000500440200020704713B50A4B0446019168
:101500009847094B019903EB40139A78032A05D1B8
:101510009B69204602B0BDE810401847002002B089
:1015200010BD00BFC5144000500440202DE9F04319
:101530000F4685B0374B80469146374C9847460159
:10154000002F45D1A519A15DEF70002937D12023C7
:101550000C2213FB0020AB78032B04EB0002EB6999
:10156000687828D1012195F90C4098476B7870B1C3
:10157000002C40F205224FF00101B4BF184643F0A1
:1015800080006A80254B984705B0BDE8F083002CA9
:101590004FF00402ACBF43F0800303F00F03AA70C6
:1015A0008DF80C300123CDE901008DF80D3001A834
:1015B0001B4B9847E8E798470223AB70E4E7012309
:1015C000AB7034444A464046E369E1789847DBE72C
:1015D000012F04EB06030BD10222A15DDA7021B9C1
:1015E0009A7040460D4B9847EBE705229A70E8E762
:1015F000022F07D10422DA70A25D0AB99F70C3E7F7
:101600000122F3E7032F0CBF4FF4A06240F2066201
:101610005A80D6E7C514400050044020750E4000A3
:10162000E90F40002DE9F047184B04464FF0200821
:1016300098470C23164F064644F0800918FB0038E3
:101640002046144BB844144D41469847C0B2082870
:1016500008D001212046A84748462B460121BDE875
:10166000F047184707EB4616002120460127A847F8
:1016700000214846A847736941462046B7709847FD
:1016800010B90523B370E4E7BDE8F087C514400046
:1016900050044020890F4000750E4000114B10B5DA
:1016A000984700281CDB802200210F4B0F489847E9
:1016B0000E4B0022FF200E4901325870D961042AD6
:1016C000C3E9051103F12003F6D10A4C00200A49B1
:1016D000A0470A490120A04702200949A04700204D
:1016E00010BD00BF9D0A40003D2140005004402035
:1016F000F51440004D11400025164000F91440003B
:101700002D154000004B184729114000004B184789
:10171000ED0A4000004B18472D0B4000004B1847C6
:101720003D0B4000004B1847690B4000F8B5114CC9
:1017300006460D461746A047002814DAFF20A047AA
:10174000041E13DB3A46294630460B4B98470028C7
:1017500008DB0A4B620105F00305002003EB44148B
:101760009D546670F8BD6FF01300FBE76FF0140036
:10177000F8E700BFC5144000890B4000500440202A
:1017800000210246014B0846184700BF2D174000B4
:1017900038B5074B05469847041E07DB2846054B1E
:1017A00098470548FF2300EB4410437038BD00BF45
:1017B000C5144000AD0C40005004402038B50C4B1F
:1017C00005469847031E10DB5B010A4C2846E25C85
:1017D0001C44094B002A0CBF02220122A270984728
:1017E000002801DA0023A37038BD6FF01100FBE779
:1017F000C514400050044020F90C40002DE9F04F82
:1018000090F80880054687B0304B40469847041E44
:101810006F7A6E6855DBDFF8C8A04FEA441B2C4B8B
:1018200002A80AEB44149847A3788DF807309DF876
:101830000730012B5FFA83F9264B1AD1032202A845
:10184000A27098471AF80B30FBB13B1E4FEAD81232
:1018500018BF01232868297ACDE9030672B341F045
:1018600080028DF8153003A81B4B8DF81420984783
:1018700008E002A898479DF80730062BDAB223D873
:10188000164B985607B0BDE8F08FE17CA27C02EBC6
:10189000012292B22AB904231646A3704B461A4677
:1018A000D8E7964294F90C1028BF16460029F6DABC
:1018B000B2424A4694BF00230123CBE701F00F0256
:1018C000CFE76FF01100DDE70120DBE7C514400032
:1018D000BD204000CB204000E90F400083214000A4
:1018E000500440202DE9F04105460C46D9B9134B70
:1018F0009847061E1EDB02212846114FB84780B1CB
:1019000021462846B84700280BDB0E4840F2013339
:101910002246032100EB46104380C36928469847BE
:101920002046BDE8F0810129054B18BF0221BDE822
:10193000F04118476FF01100F3E700BFC5144000F5
:10194000750E40005004402038B50F4B14460D462C
:1019500098470E4B002C08BF1C46002808DB012DC1
:1019600007D0022D0AD01DB9094B03EB401044618A
:1019700038BD074B03EB40108461F9E7044B03EBE0
:101980004010C461F4E700BFC5144000F5144000E6
:101990005004402008B5024B9847024B9847FEE799
:1019A000A9014000C1124000054B10B55C6904B9A3
:1019B00010BD636820460022012198472468F6E79D
:1019C000D0044020064B70B505460E461C6904B98C
:1019D00070BD636813B13146284698472468F6E71E
:1019E000D0044020F8B50C4B05460E461746DC687F
:1019F0000CB92046F8BD63680BB92468F8E73A468D
:101A000031462846984720B10A30F6D04FF0FF30D3
:101A1000F0E70120EEE700BFD0044020044B10B5F2
:101A20009C6804B910BD636803B198472468F8E75F
:101A3000D004402010B514460A4619B1012920D01F
:101A4000002010BD2378002BFAD16378052B0DD030
:101A5000092BF5D162880D4B002ADA7714BF0421D7
:101A60000321997701200A4B9847E9E76088094BE1
:101A7000C0B298476388002B044B14BF0321022196
:101A8000EFE72146044B00209847D9E7D0044020D7
:101A9000C519400025174000E519400070B5002425
:101AA0000D4D02260D4B98472046EE830C4B85F8D2
:101AB000214098470B4B95F8200098470A4D214646
:101AC00020460A4AA84720463146094AA8472046E8
:101AD000084BBDE870401847D0044020A9194000C9
:101AE000911740008117400049194000311B400008
:101AF000351A4000BD17400010B1012802D07047D0
:101B0000014B1847014B1847C51940009D1A40006A
:101B10001FB58DF80D30054B8DF80C0001A8CDE9EF
:101B20000112984705B05DF804FB00BFFD174000A7
:101B30002DE9FF41A74B002205460C469847431C60
:101B400008D0012842D0237813F0E00204D0802A84
:101B500000F0EC80002039E06278013A0A2AF9D8D6
:101B600001A151F822F000BF3B1C4000551B400072
:101B70005B1C4000551B40009F1B4000551B400054
:101B8000551B4000551B4000951B4000551B400055
:101B9000791C40006288D2B25AB98F4B9847002214
:101BA0000123114628468D4CA047B0FA80F0400929
:101BB0000CE08B4B0192984702288A4C8A4E019A7E
:101BC00007D02368D3E90001B04760B904B0BDE88D
:101BD000F0816368002BF4D00192D3E90001B04793
:101BE000019A0028EDD0C378042281787F4F01EB61
:101BF000032110FA81F10391B847FF230290029A62
:101C0000002ACCD092F80280984514D066694EB96B
:101C1000029804220399037818440290B847434677
:101C20000290ECE7736802AA00213046984700282A
:101C3000EED03668EBE79846EAE7022B8AD1E288D5
:101C4000002A87D1A0881146694BC0B201929847FB
:101C50000123019A1146284664E0022B7FF47AAFF3
:101C6000E688002E7FF476AFA0880121604BC0B2D9
:101C7000984701233246EDE7594B6588A688984777
:101C80000228584C584F29D02368E27FD3E900013D
:101C9000B84700283FF45EAF02900422C3788178F1
:101CA000524F01EB032110FA81F10391B84700284C
:101CB0003FF450AF8378B3421AD1C378AB4217D107
:101CC00067690290002F3FF445AF01217B6802AAAB
:101CD00038469847014690B13F68F3E76368002BA8
:101CE000D2D0E27FD3E90001B8470028D4D1CBE7B6
:101CF000029804220399037818440290D6E77B687F
:101D000002AA3846984700287FF424AF35B1012352
:101D1000B34094F821601E4384F8216000231A46E2
:101D2000194618462D4CA04701204FE762780A2A31
:101D30003FF610AF01A151F822F000BFDF1E4000B6
:101D4000551B4000551B4000551B4000551B4000D3
:101D5000551B4000691D4000551B4000CF1E400030
:101D6000551B40000D1F40006688330A013B062BBF
:101D70003FF6F0AE01A252F823F000BF991D4000DB
:101D8000F51D4000991E4000551B4000551B4000AA
:101D9000411E4000691E4000114BE7889847022809
:101DA000104E124C06D033680122D3E90001A0473F
:101DB00048B9CFE67368002BF5D00122D3E90001C2
:101DC000A0470028EFD0122F3A464FF0000328BF5B
:101DD000122233E0E5194000A9194000111B400010
:101DE0001D174000D004402021144000E91340009A
:101DF000E5184000DFF86081554BE48898F82070C2
:101E00009847721C0228534ED2B239D0D8F800300D
:101E1000D3E90001B04700283FF49CAEC378827834
:101E200002EB032292B2944206D9013F27421446A4
:101E30000CBF0123002300E0002322460146B1E647
:101E4000434BE78898470228434E444C02D03368FE
:101E50000622AAE77368002BF9D00622D3E9000115
:101E6000A0470028AFD1F2E7DFF8EC80384BE488D8
:101E700098F820709847721C0228394ED2B2C4E7F5
:101E8000D8F80430002BC1D00192D3E90001B0474B
:101E9000019A0028C2D1B9E72F4A324B106892F854
:101EA0002070F2B2E488D0E900019847014600288A
:101EB0003FF450AE0278944207D97B1E2342144669
:101EC0000CBF0123002322466CE60023FBE72249D6
:101ED0008B69CA7F1A70002301228969BBE603F06F
:101EE0001F0113F01E030BD002297FF433AEA0882C
:101EF0001D4BC0B29847031EFFF62CAE03F0010342
:101F000015498A69138000230222E6E71249A28854
:101F100091F821300E46134113F001030CD04D69A6
:101F2000002D3FF417AE6B682246022128469847E1
:101F3000002806DA2D68F3E78A691370012289699F
:101F4000EFE6B369012218700023B169E9E600BF2A
:101F50001D17400021144000D0044020E913400028
:101F60005D14400099144000E5184000012805D098
:101F7000022805D030B90448044B18470448FBE751
:101F80000448F9E7704700BFD8044020D911400049
:101F9000DC044020E004402038B50446003840F21C
:101FA00055320C4918BF01200B4B98470B4B9847F3
:101FB00000280EDB0A4B242200210A4D1846A847B0
:101FC000094984610020094CA04701200849A04725
:101FD000002038BD91214000191240009D1640009C
:101FE000D00440203D2140001D1A4000051740004C
:101FF000F91A40000146014B01481847D911400029
:10200000E40440200C4B10B59C7F74B980B100F102
:10201000080218605A600268D27983F820200122F1
:102020009A77064B9847204610BD6FF00300FBE7F8
:102030006FF00800F8E700BFD00440200D17400003
:10204000004B184715174000014B9869704700BFB7
:10205000D0044020034B987F10F0100F18BF1020C1
:10206000704700BFD0044020044BD3F8082152072A
:1020700002D40422C3F80021704700BF00060E40BE
:10208000034B10B59847034BBDE81040184700BFFD
:10209000692040009D164000054B10B59847054A41
:1020A000536843F40043BDE810405360024B1847A7
:1020B0007911400050180E4081204000EFF310834A
:1020C000036072B6BFF35F8F7047BFF35F8F036823
:1020D00083F310887047000070B50D4D0D4C641BE4
:1020E000A4100026A64209D10B4D0C4C00F05CF860
:1020F000641BA4100026A64205D170BD55F8043B10
:1021000098470136EEE755F8043B98470136F2E769
:10211000B4214000B4214000B4214000B821400067
:102120000A44914200F1FF3300D1704710B511F815
:10213000014B03F8014F9142F9D110BD024403460F
:10214000934200D1704703F8011BF9E72E2E2F6848
:10215000706C2F75736268732F68706C5F75736233
:1021600068732E63002E2E2F68616C2F7574696C56
:10217000732F7372632F7574696C735F6C697374FA
:102180002E6300ED0101010102F0ED0001010102E9
:10219000F02E2E2F7573622F6465766963652F7537
:1021A000736264632E630000F8B500BFF8BC08BC1E
:1021B0009E4670478D014000F8B500BFF8BC08BCD2
:0821C0009E46704769014000D2
:1021C80000000000C10140009E0040204001402066
:1021D800180040209E0040200902430002010080B0
:1021E8003209040000010202000005240001100564
:1021F80024010100042402020524060001070583C6
:102208000340000A09040100020A00000007050251
:1022180002000200070581020002000907430002CC
:1022280001008032090400000102020000052400B8
:1022380001100524010100042402020524060001FE
:102248000705830340000A09040100020A00000090
:102258000705020240000007058102400000120144
:10226800000202000040EB0304240001000000010A
:102278000A060002020000400100090243000201B0
:102288000080320904000001020200000524000158
:102298001005240101000424020205240600010798
:1022A80005830340000A09040100020A0000000730
:1022B80005020240000007058102400000090743AB
:1022C800000201008032090400000102020000053A
:1022D800240001100524010100042402020524063B
:1022E80000010705830340000A09040100020A00EF
:1022F8000000070502020002000705810200020033
:0400000500400000B7
:00000001FF
